:020000041000EA
:1000000000B5324B212058609868022188439860DF
:10001000D860186158612E4B002199600221596106
:100020000121F02299502B49196001219960352056
:1000300000F044F80222904214D00621196600F024
:1000400034F8196E01211966002018661A6600F04E
:100050002CF8196E196E196E052000F02FF8012189
:100060000842F9D1002199601B49196000215960AB
:100070001A491B48016001219960EB211966A021F2
:10008000196600F012F800219960164914480160C1
:100090000121996001BC002800D000471248134993
:1000A000086003C880F30888084703B5996A0420EC
:1000B0000142FBD001200142F8D103BD02B5186610
:1000C0001866FFF7F2FF186E186E02BD00000240BE
:1000D000000000180000070000035F00212200005C
:1000E000F4000018222000A00001001008ED00E03C
:1000F00000000000000000000000000074B24E7A12
:1001000000200420F7010010C3010010C5010010F9
:10011000C1010010C1010010C1010010C101001097
:10012000C1010010C1010010C1010010C701001081
:10013000C1010010C1010010C9010010CB01001065
:10014000CD010010CD010010CD010010CD01001037
:10015000CD010010CD010010CD010010CD01001027
:10016000CD010010CD010010CD010010CD01001017
:10017000CD010010CD010010CD010010CD01001007
:10018000CD010010CD010010CD010010CD010010F7
:10019000CD010010CD010010CD010010CD010010E7
:1001A000CD010010CD010010CD010010CD010010D7
:1001B000CD010010CD010010CD010010CD010010C7
:1001C00000BE00BE00BE00BE00BE00BE00F04BF888
:1001D000103800BEF2EB8871C04C0110F84C0110D1
:1001E0003402001090A31AE700202149086006C8D5
:1001F00081F3088810471F48006800282FD10DA4FC
:100200000ECC002902D000F012F8F9E71A491B4A77
:10021000002000E001C19142FCD1194988471949E9
:1002200088471949884700BEFDE701C901C29A42C3
:10023000FBD37047F84C0110C0000020D8150020F7
:100240001062011000000420000004201062011060
:1002500000100420001004200000000070470B482C
:100260000BF034F90047EFF30580C0B2704700008F
:1002700008ED00E0000000D0D81500201C8100200F
:1002800081990010E90700105D9A00105756000090
:1002900006005250ABB36053704301100600525039
:1002A000861C030280430110060052505422A29D76
:1002B0008C43011005005250DE65F4681062011095
:1002C000F8B5C0460448054B10B5834203D0044B33
:1002D000002B00D0984710BDD8150020D81500205D
:1002E0000000000006480749091A8B10C90FC918F9
:1002F00010B5491003D0044B002B00D0984710BD17
:10030000D8150020D81500200000000010B5074CBB
:100310002378002B09D1FFF7D5FF054B002B02D026
:10032000044800E000BF0123237010BD30170020F7
:100330000000000020030110054B10B5002B03D076
:100340000449054800E000BFFFF7CCFF10BDC046E0
:100350000000000034170020200301107047704790
:1003600070B505000C000D4B18600D480CF0CAFD6F
:10037000012C00DC70BD0B4B1C60280005F022FE38
:10038000094B01221A6009480CF08CFD084B094A00
:100390001A60094B094A1A60ECE7C046C80B0020F6
:1003A000200301100C1C0020141C0020400301102D
:1003B0008C10002095050010881000205F030010AD
:1003C000F0B5C64600B590B004000E0017001D0041
:1003D000334B98425FD00721280008F063F80123CF
:1003E00000932A00310020000FF050FD00230B93F2
:1003F00080235B020893F8235B020993C0231B034D
:100400000A93102208A904A80CF046FC7B1CBA1C15
:10041000DB01120313430593102204A90CA80CF06E
:100420003BFC0F9B03931F4A1A406D011543802329
:10043000DB041D430F95052009F04CFC0CF069FA14
:1004400019490CF006FA80460CF08AFA85B2002DA4
:1004500023D028000CF05DFA011C40460CF0EFF9A7
:100460008721C9050CF00BFA0CF07AFAC3B21B0213
:100470002D041D430C950CAB3A00310020000FF009
:100480003DFD22680123B3409A431343236010B01B
:1004900004BC9046F0BD06219EE70023E7E7C04676
:1004A000000020501FFCFFE38096184B10B54268F7
:1004B0000C0008340123A340134204D1A1000858C2
:1004C0000123184310BD0020FCE7000082B0002388
:1004D0000193019B002BFCD10D4BC82292001A60A6
:1004E0000C4B802212011A600B4B0C4A1A600C4B09
:1004F0000C4A1A6002E001330B4A13600A4B1B6876
:100500009A07F8D1094B01221A6002B07047C04621
:1005100084100020CC0B0020680C002048000080D4
:10052000D00B002000080080FC3A00200C3B00208B
:1005300070B50C00114E124D336829688C46634427
:100540001A0021000F480CF0DDFCE1B233682A6884
:1005500094466344180000F00DFF2B6832689A1827
:1005600009490A6001332B60084A1368013B136094
:10057000002B02D1064B01221A6070BD680C0020CE
:10058000101C002068030110FC3A00200C1C002005
:10059000081C002010B50400054B1B68834200D0E6
:1005A00010BDFFF7C5FF200005F00CFDF8E7C046C1
:1005B000C80B0020F0B583B005001E0001248C405C
:1005C000D0273F06BC61C046C046C04601A90323F0
:1005D0000B70130C4B70130A8B70CA7004220FF04F
:1005E00067FE089B3200002128000FF019FEC0466C
:1005F000C046C0467C6103B0F0BDF0B5CE4647466C
:1006000080B583B004000D00984601AE022333701C
:10061000130C7370130AB370F2700FF021FE0127F0
:10062000AF40D0231B0699469F61C046C046C046D6
:100630000422310020000FF03BFE0A9A41462000C0
:100640000FF036FEC046C046C0464B465F612900EB
:1006500020000FF04DFE03B00CBC90469946F0BD53
:1006600070B50500002404E0295D0A480CF04AFC3E
:100670000134FF2C0CDCE217120FA1180F230B40E2
:100680009B1A0F2BF0D1295D03480CF03BFCEFE7E0
:1006900070BDC046880301108003011070B5C2B060
:1006A0000400002919D180220123009302AB5201DA
:1006B0000D214548FFF77EFF44480CF0F3FB02A8EC
:1006C000FFF7CEFF42480CF0EDFB0023FF2B24DCAC
:1006D00002AA0021D1540133F8E73E480CF0E2FBB6
:1006E0003D4939480FF0A8FC01210C2007F0DAFE43
:1006F00001210E2007F0D6FE01210F2007F0D2FEC7
:100700000D2007F001FFD0231B06802292015A61C1
:100710005A6232480CF0C6FBC5E7802676012A4DA6
:1007200080235B00009302AB32000D212800FFF70D
:1007300064FF02A8FFF794FF0123009302AB32008D
:100740000D212800FFF736FF25480CF0ABFB02A86F
:10075000FFF786FF0023FF2B04DC191902AAD154EE
:100760000133F8E780220123009302AB52010D21EF
:100770001548FFF742FF0023FF2B04DC02AAEE21FD
:10078000D1540133F8E780256D010F4C0126009606
:1007900002AB2A000D212000FFF70CFF11480CF0DE
:1007A00081FB02A8FFF75CFF009602AB2A000D2137
:1007B0002000FFF7FFFE05480CF074FB02A8FFF7CE
:1007C0004FFF002042B070BD00000440C003011084
:1007D000D40301109003011040420F00A403011044
:1007E000E4030110F0030110F0B5C64600B5C64C95
:1007F000A5440CF093FBC5480CF054FB0121552097
:10080000FFF74CFF00216620FFF748FFC04D28008E
:1008100000F084FD04004521280000F0ABFD280015
:1008200000F07CFD030045222100BA480CF06AFB71
:100830008022FF2300930CAB52010D21B648FFF735
:10084000B9FEB6480CF02EFB0CA8FFF709FF1220EA
:1008500007F05AFED02424068023DB0263620721BE
:10086000122007F01FFE112007F04EFE8027BF0266
:10087000676267610721112007F014FE102007F05E
:1008800043FE80235B029846A3620721102007F0F5
:1008900009FE05F0D1FAA24DA24C290020000FF06C
:1008A0006BFA290020000FF067FA050001212000F3
:1008B0000FF044FA010012232A002000FFF780FD08
:1008C000012120000FF03AFA0500974920000FF0AF
:1008D00053FA060000230022290020000FF068FAD6
:1008E0003B003A00290020000FF098FA0621112061
:1008F00007F0D8FD00230B9343460893F8235B02CF
:100900000993C0231B030A93102208A904A80CF022
:10091000C3F9721DF301120313438022D20507921B
:1009200082490B4013430593102204A908A80CF038
:10093000B3F90A9B7E4A1A4080231B0313430A9390
:100940000B9B03937B4B039A134011221A43802382
:100950005B031343784A13408822D20113430B935D
:10096000052009F0B7F90BF0D4FF74490BF071FFC3
:10097000071C0BF0F5FF84B2002C00D1B1E0200081
:100980000BF0C7FF011C381C0BF059FF8721C9056C
:100990000BF075FF0BF0E4FFC3B21B0224042343EA
:1009A0000893604C08AB3200290020000FF0A6FA33
:1009B00022680123AB409A43134323602A0021009D
:1009C000002005F067FA012120000FF0B7F90500BB
:1009D0005B4920000FF0D0F90600002700970123A3
:1009E0001022290020000FF051FA0621102007F0F4
:1009F00059FD00220121102007F06CFD0B97802388
:100A00005B020893F8235B020993C0231B030A933C
:100A1000102208A904A80CF03FF9321DF3011203BB
:100A200013430593102204A908A80CF035F90B9B79
:100A3000444A1A4080231B0313430B93099B424AE9
:100A40001A4080235B05134309930A9B03933F4A93
:100A50001A408023DB0213430A93052009F03AF978
:100A60000BF057FF35490BF0F4FE071C0BF078FF35
:100A700084B2002C37D020000BF04BFF011C381C37
:100A80000BF0DDFE8721C9050BF0F9FE0BF068FFC6
:100A9000C3B21B02240423430893224C08AB320048
:100AA000290020000FF02AFA22680123AB409A4364
:100AB000134323602A002100002005F0F3F9FFF71B
:100AC00005FD05F099FBFA20400008F07DFB204B66
:100AD000204A1A60204B214A1A6021480CF0E2F9A2
:100AE00005E0002359E70023D3E705F03DFA1D4B4D
:100AF0001B68002BF9D01C480CF0D4F901F08EFAD9
:100B000005F076FAFAE7C046E8FBFFFF00040110A3
:100B1000001800800C04011000000440C003011004
:100B2000C004011000002050E4040110FFFFFF9FEB
:100B3000FFFFF5C1E0FF0FFCFF83FFFF8096984C9D
:100B4000D0040110FF7FF0FFFFFFFFE0FFFF0AFE70
:100B50008C10002061030010881000205D0300103D
:100B600034040110081C00204C04011001214942EA
:100B700020235B0809D00A009A4051400200DA4065
:100B8000984042400A405040F3E7704710B5064C89
:100B90001022210005480CF07FF8102204492000A3
:100BA0000CF07AF810BDC046103B0020A03A00209F
:100BB000283B002010B5064C1022210005480CF0FF
:100BC0006BF81022210004480CF066F810BDC046F6
:100BD000283B0020A03A0020103B002010B5040064
:100BE0000A4B1B68402B07D1084B9A68DB680260F0
:100BF0004360FFF7CBFF10BD05480CF053F9054BE0
:100C00001A685B6822606360F3E7C046A03A002080
:100C1000F8040110107E002070B505000C00104B88
:100C20001B68402B03D10F4B1B68402B0CD00E4888
:100C30000CF038F90D4B19685A6829606A601A6817
:100C40005B682260636070BD054B9A68DB68026078
:100C50004360044B9A68DB680A604B60F3E7C04668
:100C6000103B0020A03A002030050110107E00202B
:100C700010B5FFF7D1FFFFF79DFF10BDF8B50600D7
:100C80000D00084F1022390007480CF005F8074CFA
:100C90001022210038000BF0FFFF40232360A660E4
:100CA000E560F8BD103B0020283B0020A03A002062
:100CB00010B50400084B1B68202B05D1064B9B6820
:100CC0000360FFF763FF10BD04480CF0EBF8044B22
:100CD0001B682360F5E7C046A03A002070050110AC
:100CE0000C7E002070B505000C000C4B1B68202BFF
:100CF00003D10B4B1B68202B08D00A480CF0D2F80C
:100D0000094B1A682A601B68236070BD034B9B68FF
:100D10000360034B9B680B60F7E7C046103B002065
:100D2000A03A0020A80501100C7E002010B5FFF7A6
:100D3000D9FFFFF73FFF10BD70B50500074E102229
:100D4000310007480BF0A8FF064C102221003000AC
:100D50000BF0A2FF20232360A56070BD103B002094
:100D6000283B0020A03A002030B58BB005000C00D5
:100D7000194B01221A60194B1B68202B13D0402BF2
:100D80001BD106A908A8FFF773FF069B079C0093D9
:100D90000194089A099B02A8A84702980399FFF7B3
:100DA0006DFF0BB030BD04A905A8FFF7BFFF049984
:100DB0000598A047FFF7C0FFF3E709480CF072F869
:100DC000FFF7F8FE074B18685968FFF757FF034B0A
:100DD00000221A60E5E7C046903A0020A03A0020C1
:100DE000DC050110107E002030B587B005000C0036
:100DF000114B01221A60114B1B68202B0CD0402B89
:100E000012D102A904A8FFF733FF029A039B0498AA
:100E10000599A84707B030BD694601A8FFF786FFCE
:100E200000990198A047F5E705480CF03BF8FFF75B
:100E3000C1FE0020EEE7C046903A0020A03A002014
:100E40001406011030B587B005000C00154B0122C7
:100E50001A60154B1B68202B0ED0402B14D104A810
:100E6000FFF7BCFE049A059B6846A84700980199C5
:100E7000FFF704FF07B030BD03A8FFF719FF039881
:100E8000A047FFF759FFF5E708480CF00BF8FFF70C
:100E90007DFE074B18685968FFF7F0FE024B0022F1
:100EA0001A60E7E7903A0020A03A002050060110AF
:100EB000107E002010B5040000210FF07DF90028FD
:100EC00000DB10BD0A480BF0EDFF1022094920009D
:100ED0000BF0E2FEA3680133A360002BF1D10122E5
:100EE00000232068616812184B4122606360E8E7C4
:100EF00088060110D83A0020F0B58DB004000D002E
:100F000016001F0005F0E8FC314805F0E3FC04ABD7
:100F100000221A703368402B0AD0202B2DD0002FCE
:100F20004CD105F081FB2B4805F0D4FC0DB0F0BD91
:100F3000F768B6683000390005F0DAF900280FD0FC
:100F4000254B1A6804929A8804AB9A8004AB0293EA
:100F5000009601972A00210020480BF0D3FFE0E71C
:100F60003000390005F0DEF90028EFD01C4B1A687C
:100F700004929A8804AB9A80E8E7B668300005F0DE
:100F8000B1FA00280ED0144B1A6804929A8804AB68
:100F90009A8004AB009333002A00210011480BF023
:100FA000B1FFBEE7300005F0B2FA0028F1D00C4BDB
:100FB0001A6804929A8804AB9A80EAE7B268F368E8
:100FC000009201932A00210007480BF09BFFA8E73D
:100FD000B00601104C070110C8060110D806011018
:100FE000D0060110FC0601102407011010B53C4882
:100FF0000BF058FF3B4B19683B480BF083FF3B4B12
:1010000019683B480BF07EFF3A4B19683A480BF0E1
:1010100079FF3A4B19683A480BF074FF394B19685D
:1010200039480BF06FFF394B1B68002B34DB384914
:1010300038480BF067FF354B1B681B062ED5364929
:1010400036480BF05FFF364B1B68C8229200934274
:1010500026D05932FF32934222D0324B196832489F
:101060000BF050FF314B196831480BF04BFF314BFF
:10107000196831480BF046FF304B196830480BF0C7
:1010800041FF304B196830480BF03CFF2F4B19687B
:101090002F480BF037FF10BD1F49C9E71C49CFE7A8
:1010A0002C4C01232C4A41212000FFF725FF01236E
:1010B0002A4A42212000FFF71FFF0123284A43212B
:1010C0002000FFF719FF05F007FC264B1B68002BDB
:1010D00004D0114924480BF015FFBEE70C49F9E78D
:1010E00070070110042200208C070110FC3A002038
:1010F000A4070110203B0020BC070110983A0020F3
:10110000D4070110882A0020EC070110F83A0020CB
:1011100064070110040801106C0701101808011081
:1011200084100020E021002044080110E821002064
:101130005C0801106822002074080110E83A0020C1
:101140008C0801100C220020A4080110F43A0020A1
:10115000BC0801102C080110A03A0020103B002010
:10116000283B00203C3B00203008011030B585B002
:101170000C00EF2836D9802109068C4232D0AB2CE6
:101180000CD0BE235B009C421AD0204B9C4220D046
:10119000F92C20D8A3001E4A995812E08A42F0D0B8
:1011A0009C2A0BD0232A03D892001A4BD15808E06E
:1011B000194968460AF04CF9694602E0174900E00F
:1011C0001749002907D0174C20000EF06FFF2000B0
:1011D0000EE01549F5E72200144968460AF038F98F
:1011E0006946F0E7002B05D000098000104BC0587D
:1011F00005B030BD000980000D4BC258094D2300D9
:101200000C4928000AF024F92800F1E7FF0100004A
:10121000B00C0020D40B0020F0080110D4080110FD
:10122000E0080110FC200020E8080110FC08011073
:10123000700C00200809011010B58B0703D0054B76
:101240001B68002B00D110BD010003480BF05AFEB3
:10125000F9E7C046B01C00201409011010B58B0737
:1012600003D0054B1B68002B00D110BD01000348C3
:101270000BF048FEF9E7C046B01C002058090110E9
:1012800000B58BB002000D4B1B68984207DA0C4B7F
:10129000186810400B4A801800680BB000BD0A4B5C
:1012A0001868121A064B186802402023009302ABFC
:1012B0000D210648FFF77EF902A8EDE7D00B0020CC
:1012C0006C0C002074220020CC0B00200000044095
:1012D00000B585B00C4B1B68984206DA0B4B1A68B8
:1012E00010400B4B195005B000BD0A4B1A68821A0A
:1012F0000391064B186802400423009303AB0D21B1
:101300000548FFF77AF9EEE7D00B00206C0C0020BF
:1013100074220020CC0B00200000044080B50F4F49
:10132000BD440F4B1B68984208DA0E4B1A681040F8
:101330000D4B185CFC239B009D4480BD0B4B1A6831
:10134000821A084B186802400123009302AB0D215A
:101350000748FFF72FF902AB1878EBE710FCFFFF07
:10136000D00B0020640C002074220020CC0B002045
:101370000000044080B50F4FBD440F4B1B689842DE
:1013800008DA0E4B1A6810400D4B1954FC239B00D1
:101390009D4480BD02AB19700A4B1A68821A074B34
:1013A000186802400123009302AB0D210648FFF7A5
:1013B00024F9EBE710FCFFFFD00B0020640C0020A9
:1013C00074220020CC0B00200000044010B502481D
:1013D0000BF068FD10BDC046A009011070B50500F6
:1013E000FFF74EFF04000B4B1B68002B08D10A4B84
:1013F0001B68002B02D0094B9C4207D0200070BD17
:101400000200290006480BF07DFDF0E7FFF7DEFF44
:10141000F4E7C046C0200020C4200020FA2FFA2F95
:10142000D409011070B504000D00FFF751FF054B02
:101430001B68002B00D170BD2A00210002480BF070
:1014400061FDF8E7C0200020F809011010B5040084
:1014500080210906FFF7E6FF084B9C4205D0103BB0
:101460009C4200D010BD064B00E0064B002BF9D08B
:10147000802212061A6000225A60F3E710000080F2
:10148000202200202822002070B58024240620007D
:10149000FFF7DCFF244D2800FFF7D8FF234B1A6825
:1014A000234B1A60234B1D60234B1C60234B1C6095
:1014B00023492448FFF7B6FF234B01221A60234833
:1014C000002200230260436000238360FFF7F2FCE8
:1014D0001F4B1B68C8229200934203D05932FF323F
:1014E00093420CD105F0AEF800231A4A13601A4A51
:1014F00013601A4A136002E00133194A1360184B53
:101500001B689A07F8D1174B1B68002B00D170BDE0
:1015100000238022D2009342F9DA9900124A002077
:1015200088500133F5E7C04610000080680C0020A9
:1015300004220020882A0020F43A00200C220020F7
:10154000010000802C000080083B0020D83A0020D9
:1015500084100020A03A0020103B0020283B0020EF
:10156000FC3A0020E02000208C2A002030B583B017
:1015700080231B067D4A13607D4A12689A424ED032
:101580007C4B1B68002B46D1784B00221A60774BAE
:101590001B6880221206934265D0002B00D06DE0BC
:1015A000734A1468744A1568724A1268002A0BD08C
:1015B000002B68D071496E4B1B68714A126800920B
:1015C000220070480BF09EFC684B1B68012B5CD01E
:1015D00080231B069C4200D1C5E0AC4200D19DE0B7
:1015E000694D2C6021006948FFF726FE2868043801
:1015F000FFF7F4FE664B18605C4B1B68002B00D0B5
:10160000A8E0614B18680838FFF7E8FE584B1860EF
:10161000002003B030BD5F480BF044FCB4E75E48E7
:10162000FFF7DCFE5D4B98420BD0524B1B68002B42
:1016300003D14E4B01221A60A9E759480BF032FC46
:10164000F7E74F4B1A6880231B069A429FD0494BFD
:101650001B68002B03D1454B01221A6097E75148C4
:101660000BF020FCF7E7434B1B68002B02D1012055
:101670004042CEE74C480BF015FCF8E7404A1468AE
:101680004A4A156890E74A4995E74348FFF7A6FE9E
:10169000424B98429CD04048FFF7A0FE0123010036
:1016A0009943394B19604348FFF7C6FD4248FFF79D
:1016B00095FE374B18604148FFF790FE404B18608D
:1016C0004048FFF78BFE404B18604048FFF786FE0E
:1016D0003F4B18603F48FFF781FE3F4B18603F4B80
:1016E0001B68C8229200934203D05932FF329342C2
:1016F0000ED110223A493B480BF0CEFA10223A495B
:101700003A480BF0C9FA102239493A480BF0C4FAAA
:1017100022492148FFF786FE00207AE71A4D2C6007
:1017200021003548FFF788FD28680438FFF756FE8A
:10173000174B18600D4B1B68002B05D10C4B8022FA
:1017400012061A60002064E70D4B802212061A6010
:1017500000205EE70C4B18680838FFF73FFE084B87
:101760001860002055E70120404252E70C3B002062
:1017700068220020B01C0020E83A0020200A011056
:10178000E02100201C0B0110FC3A0020A40B0110EA
:1017900004220020240A01102C0000800100008097
:1017A000600A0110A40A0110E00A0110E8210020DB
:1017B0001C0A0110840B01103000008034000080EE
:1017C000203B002038000080983A00203C00008038
:1017D000882A002040000080F83A00208410002071
:1017E000B03A0020A03A0020F0210020103B002059
:1017F000782A0020283B0020940B011010B50D4BD7
:101800001B68002B0CD10C4B19680C4B1868043862
:10181000FFF708FE0A4A012311680B43136010BD4D
:10182000064B1968074B1B68194307480BF06AFB06
:10183000E9E7C046B01C002004220020FC3A00204A
:10184000F83A00200C3B0020B40B011010B52248E0
:10185000FFF7C4FD214B98423AD1214B1968214B27
:101860001B6819431C48FFF7DDFD1F4B19681F4813
:10187000FFF7D8FD1E4B19681E48FFF7D3FD1E4B1E
:1018800019681E48FFF7CEFD1D4B19681D48FFF76C
:10189000C9FD1D4B19681D48FFF7C4FD1C4B1B6893
:1018A000C8229200934203D05932FF3293420ED1A4
:1018B0001022184918480BF0EFF910221749184860
:1018C0000BF0EAF91022174917480BF0E5F910BDA3
:1018D00016480BF0E7FAC0E72C00008001000080FA
:1018E000FC3A00200C3B0020042200203000008045
:1018F000203B002034000080983A0020380000800F
:10190000882A00203C000080F83A00204000008037
:1019100084100020A03A0020B03A0020103B0020A4
:10192000F0210020283B0020782A0020DC0B011049
:10193000F0B5C64600B50700411C3C4B186814388A
:10194000FFF770FD3A4B1B68002B1DD1394B1B680C
:10195000984680231B0698451AD040461438FFF756
:101960003DFD0600C31B002B2CDD304B18681038E2
:101970004146FFF757FD2E4B1B68002B1DD12B4B0B
:101980001A682C4B1A604EE02B4B1B689846E0E718
:101990008021264B186810380906FFF743FD244BB9
:1019A0001B68002B04D1214B1A68224B1A603AE0C5
:1019B0001E4B1A68204B1A6035E01C4B1A681E4BF0
:1019C0001A6030E040461038FFF708FD040080231D
:1019D0001B0698420BD01438FFF700FD060006E006
:1019E00020001438FFF7FAFC0600A0462C00BB1BB1
:1019F000002B0DDD80231B069C4209D020001038EF
:101A0000FFF7ECFC050080231B069842EDD0E7E7CA
:101A1000064D404610382968FFF704FD2868103845
:101A20002100FFF7FFFC04BC9046F0BDFC3A00200B
:101A30000C3B0020F43A00200C22002070B51C4B17
:101A40001B68002B0BD01B4B1C681B4B1868844277
:101A50002AD11038FFF7C2FC164B1860F3E7174B7A
:101A60001C68154B186884421ED11038FFF7B6FC6D
:101A7000124B1860F3E720001038FFF7AFFC250089
:101A8000040080231B069C4210D00B4B1B68A34212
:101A9000F1D120001038FFF7A1FC0400010028005C
:101AA0001038FFF7BFFCECE72500EAE770BDC04641
:101AB0000C3B00200C220020FC3A0020F43A0020CD
:101AC00070B501240500A5430440404B1B68002B62
:101AD00006D0002C2ED03E4A29003E480BF012FAC8
:101AE00028000C38FFF7CCFB3B4B984224D0002C4D
:101AF00003D13A4B1B68012B21D0344B1B68002BC0
:101B00003ED1002C40D1364B1A6880231B069A42E6
:101B10003DD02E4B1B68002B4DD1002C4FD1314BAB
:101B2000186808382900FFF77DFC002C4AD12D4B9E
:101B30001D6070BD2C4ACFE7FFF780FFD7E7234B2E
:101B40001B68002B18D1FFF781FE284A284B11682B
:101B50000B4080218B431360204B00221A60254CE0
:101B6000256029002448FFF767FB20680438FFF749
:101B700035FC224B1860DCE721480BF093F9E2E7D3
:101B800020480BF08FF9BCE71F4B1A68BDE70F4BDD
:101B90001B68002B06D1002C08D1114B1D60114B86
:101BA0001D60C6E719480BF07DF9F4E7164B1D6080
:101BB000174B1D60BDE717480BF074F9ADE7144BE8
:101BC0001868AEE7124B1D60B3E7C046B01C00209A
:101BD000200A0110200C0110030000800C3B0020A3
:101BE00068220020E83A00201C0A0110F83A002080
:101BF00080000080FC3A0020940C01100422002098
:101C00005C0C0110A00C0110E0210020DC0C011084
:101C1000E8210020100D011070B5594A13680133F6
:101C200013600A2B00DC70BD130000221A6007F05D
:101C300067FB544B1A68841A186059609042F2D0BE
:101C4000514B1B68012B32D0504A13689C466444A8
:101C500014604F4B186880231B0698422CD04D4BC4
:101C60001B68002B03D04C4B1B68002B24D014386E
:101C7000FFF7B4FB0500494B1B685B1B002B1BDD0A
:101C8000434B186880231B06984215D0FFF718FFB6
:101C90003F4C20681038FFF7A1FB206080231B0613
:101CA0009842E8D01438FFF799FB0500E3E73B4A78
:101CB00013681B191360C7E7344B1A68402AB2DD5A
:101CC000314B1B68012B3CD0D3173F210B409B1895
:101CD0009B1133480468A446634403600A402B4BBD
:101CE0001A60304B186880231B06984234D0294B69
:101CF0001B68002B03D0284B1B68002B2CD01438FA
:101D0000FFF76CFB0400284B1B681B1B002B23DD1B
:101D1000244B186880231B0698421DD001231843CA
:101D2000FFF7CEFE1F4D28681038FFF757FB2860DD
:101D300080231B069842E6D01438FFF74FFB0400BF
:101D4000E1E7D1173E330B409B189B1116490868F9
:101D5000844663440B60B7E7114B1A68102A00DC15
:101D600061E7D3170F210B409B181B110F48046824
:101D7000A446634403600A40094B1A6053E7C04617
:101D8000F03A002028170020142200200022002012
:101D9000F43A00200C3B0020083B002008220020E1
:101DA000C83A00200C220020D43A0020043B002036
:101DB00010B5254B1B68012B05D0244A012311685F
:101DC000994311600AE0224B1B68002BF5D134E0E7
:101DD00020480BF067F809E0FFF71EFFFFF7C6FB8E
:101DE00000281CD01C4B1B68002BF1D104F0FEF91D
:101DF000041EF1D1194B1A6880231B069A4208D1A0
:101E0000174B1A6880231B069A4205D0FFF704FF80
:101E1000E4E7FFF701FFE1E7FFF7FEFE00E0012442
:101E2000002C0BD00F4B00221A600F4B1B68002BAD
:101E300003D00E4AD3680133D36010BD0C480BF0B9
:101E400031F8FFF7D3F8EDE70C3B0020F83A00201B
:101E5000083B0020400D0110B01C0020F43A002087
:101E60000C220020043B0020E02000205021002014
:101E70007C0D011010B5074B1968074C2368181F1B
:101E8000FFF7D0FA2068054B1B681843FFF718FED0
:101E900010BDC04604220020FC3A00200C3B00206C
:101EA00010B5184B1B68002B03D0174B1B68002B79
:101EB00001D004F09BF9134B1968002919D0134B7A
:101EC0001B68012B0DDD124B1B68002B12D10F4B31
:101ED00000221A60FFF7CEFF0E4A012311680B4360
:101EE00013600D4B1B68002B03D00C4A5368013361
:101EF000536010BD0A4B1B6819430A480BF002F8E7
:101F0000E5E7C0460C3B0020083B0020043B0020D6
:101F1000B01C0020F83A0020E020002050210020D2
:101F2000FC3A0020B80D011070B50500FFF7F6F976
:101F30000400064B1B68002B01D1200070BD02007D
:101F4000290003480AF0DEFFF7E7C046C020002062
:101F5000E00D011070B504000D00074B1B68002B4D
:101F600004D129002000FFF705FA70BD0A00010026
:101F700002480AF0C7FFF4E7C0200020040E011059
:101F800010B5034B01221A60FFF728FA10BDC046B6
:101F9000903A002010B5034B01221A60FFF742FA75
:101FA00010BDC046903A002070B505000C00074BEC
:101FB00001221A600800FFF711FA0600201DFFF742
:101FC0000DFA2E606860280070BDC046903A00206F
:101FD00070B5040011001D00044B01221A60FFF7C8
:101FE00021FA201D2900FFF71DFA70BD903A00204C
:101FF00010B504008023DB00984205D2054AA400F6
:10200000A3580133A35010BD010003480AF07AFF22
:10201000F4E7C0468C2A0020280E0110F0B5DE46F9
:1020200057464E464546E0B593B0D54BD54A13606A
:10203000D54A1360D54A1360FFF726FA0023D44A25
:102040001360D44A1360D44A1360D44A1360D44A4C
:10205000136003930293002401267FE2FFF7A8FE9A
:1020600091E2002200E00022CE4B1A60CE4B1B68AA
:10207000002B2AD0002E1CD00298441C192109F0F4
:1020800051FA002908D1C94B1A68CF235B009A4244
:1020900050D0C7480AF006FFC64B1B68002B4DD135
:1020A0004821C54B1A68C5480AF02CFF0294002449
:1020B0000026C34B1978C3480AF024FF0134C24BF1
:1020C0001B78202B01D0602B3AD1C04B1B68002B12
:1020D00000D0BDE0BC4B1878802800D19FE200D929
:1020E00017E1402800D17CE200D8B6E0602800D19A
:1020F0008BE2702800D0F2E0B54BB64A1968116047
:10210000B54A914612681A60B44F3B689800B44BC8
:102110001B68C018FFF762F94B461860A64A13689F
:102120000133136000233B609E4B01221A60EEE1F5
:10213000002299E7AB480AF0B5FEADE72021B0E7F1
:10214000082C04DCA8480AF0DDFE0134F8E7A24BB5
:102150001A68A24B19689C4B18780023FFF706F801
:1021600006000100A1480AF0CDFEA14B1B681A062B
:1021700033D54821002B32DB2D229E480AF0C2FEC7
:102180008A4B1B68C822920093422AD05932FF32F0
:10219000934226D0904B1F688D4B1B689A468D4BFF
:1021A0001B689B468E4B1B6898461800FFF768F823
:1021B0000190434600935B46524639008E480AF030
:1021C000A1FE7A4B1B68C822920093421DD059325F
:1021D000FF32934219D0012677E72D21CAE7452225
:1021E000CBE704F079FB854B1B68002B0BD0462115
:1021F000834B1B68834A12689B18013B1A788248FC
:102200000AF080FEC6E72D21F2E702227F49300066
:102210000DF088FF46424641F6B2039B334301D19D
:10222000012652E77A4F00237A4A41213800FEF70F
:1022300063FE0023784A42213800FEF75DFE00234A
:10224000764A43213800FEF757FE039601263CE705
:102250005D4B1878FFF7CCFE3CE7202800D1B7E1B2
:102260001ED9302801D003F0DEFB5B4B984619687D
:102270006B48FEF7F3FF594F3B68980043461B68D5
:102280009C466044FFF7AAF8434618604A4A136820
:102290000133136000233B60424B01221A6036E198
:1022A000002800D124E1102801D003F0BCFB484BEA
:1022B000484A1968116048490A681A60474A136811
:1022C0009B00474800681B180B603B490B680133B3
:1022D0000B6000231360334B01221A6017E1502872
:1022E00001D003F0A0FB3C4F39684E48FEF7B6FF23
:1022F0003A4A13689B0039688C4663443B602E4918
:102300000B6801330B6000231360264B01221A6017
:10231000FDE0C02800D1C1E11BD9E02800D1D5E102
:10232000F02800D0C3E01F4B01221A60274B1B6826
:10233000002B00D0E9E1294B1B68984680239B00C5
:10234000984501D303F05BFB43469B00364AD358C4
:102350009F46A02800D185E1B02867D11F4A1368A5
:102360009B001F490868844663440B6012490B6850
:1023700001330B60002313600A4B01221A60C6E090
:10238000EFBEADDEE42100208C3A002010220020B8
:10239000F03A002000220020C83A0020043B002030
:1023A00014220020083B0020B01C002084100020D4
:1023B000D00E01100C3B002004220020400F011021
:1023C000003B00204C0F0110C43A0020E020002008
:1023D000983A0020882A0020203B00201C22002060
:1023E000FC3A0020600E0110540F0110580F01102C
:1023F000F83A0020600F0110700F01103C3B0020E4
:1024000098100020C03A0020680F01108C0F0110B6
:10241000900F0110A03A0020103B0020283B002024
:102420009C0F0110A40F0110F4200110902801D07E
:1024300003F0F9FAE74F3B6801333B60E64B9A46FD
:10244000E64B98461B68181F53461968FEF7EAFFCB
:10245000E34B99464346186808384B461968FEF71F
:10246000E1FFE04B9B46434618680C385B46196811
:10247000FEF7D8FF4346186810383968FEF7D2FFD8
:1024800043461B68103B424613603B685A46136044
:102490004A46514609681160D34A11688C46634424
:1024A0003B6000231360D14B01221A602FE0D0283B
:1024B00001D003F0B8FACC4F3B689800C94B99465D
:1024C000C64B1B68C0184B461968FEF7ABFFC44BE0
:1024D0004A4619681160C04A12681A60BD4A1368FA
:1024E0000133136000233B60C04B01221A600EE0F1
:1024F000B8490B680133BC4A1068844663440B60DA
:1025000000231360B94B01221A60FFF7C9FCB84BD6
:102510001B68C8229200934201D103F096FA593207
:10252000FF32934201D103F090FAB24B1B68002BAB
:1025300003D0B14A136801331360002D05DBAF4BA4
:102540001B68002B01DA03F092FAAD4B1B68012BDC
:1025500001D103F094FAAB4804F0BCF9AA4B1193F3
:10256000AA4B1A685B680A920B930C920D93A84BC6
:102570001B680F931093A14F3D68FFF74DFB3B681D
:10258000DB0700D56AE5A34B00221A60914B18685F
:10259000FEF7C4FE0300A04A10700F220100914311
:1025A0000A009E490A700F2018409D4B18708E4BF0
:1025B0001968084318608D4B1B68002B00D152E549
:1025C000202A00D1B4E5602A00D14AE501224BE57A
:1025D000854A13681B0113607E4A13680133136038
:1025E00095E77F4A7C4B116819607E4B1968116032
:1025F0007D4A1168196077490B6801330B6000232D
:1026000013607A4B01221A6081E7774A1368DB4333
:102610001B0113606F4A13680133136077E7814F22
:1026200000233B60804A13606F4B19686D4B9946DD
:10263000186803F077FA4B4618603B68012B0AD004
:10264000644A136801331360674B00221A60674BBA
:1026500001321A605BE7694A80231B0611680B434D
:102660001360EDE75B4A1368013313605D4A12683B
:10267000002A0DD05A4B5B4A19681160564A1268FD
:102680001A60594B00221A60584B01321A603EE71B
:10269000554A12689B184F4A1360F2E7514B1A686B
:1026A000514B1B689A420DD04E4B00221A60494A8A
:1026B0001368013313604C4B00221A604B4B0132FC
:1026C0001A6024E7474B01221A60F0E7454B984611
:1026D00019685648FEF7C2FD434F3B689800404BCF
:1026E000196843461B689C466044FEF79BFE3A4BC4
:1026F00042461B681360374A136801331360002396
:102700003B603A4B01221A6001E7374B18680130F1
:10271000FF30FFF76DFC0EE6324A1168304B186847
:10272000106019602B4A13680133136003F076F9C7
:102730002C4F3868FFF7F8FB3860264A13680133DE
:10274000136003F06BF92749254A0B68106884462B
:1027500063440B60204B1B6813601E4A13680133EF
:10276000136003F05BF91F4B18680430FEF736FE68
:102770000700012810D02E4B1B68002B25D11F4AC3
:10278000012311680B431360791E164B186804303F
:10279000FEF748FE03F042F9254B1B68002B10D1D1
:1027A000104B99460D4B4A4612681A601100214899
:1027B000FEF742FD4B461868FEF710FE054B186009
:1027C000E2E71D480AF06EFBEAE701001B480AF049
:1027D00099FBD4E704220020882A0020FC3A00203C
:1027E000983A0020203B00201C220020083B0020BB
:1027F00084100020E020002050210020F83A002022
:10280000E420002058200110EFBEADDE107E002035
:102810000C7E0020903A0020003B0020C43A0020AB
:10282000CC3A0020EC2100206C220020AC0F0110DB
:10283000B01C0020DC0F0110B40F0110E40F0110D8
:10284000DC4ADD49136808681B1A0B60DB4B1B6808
:102850001360DB4A13680133136003F0DFF8D94FCC
:1028600000233B60D84A1360D34B9946D14B18687C
:102870004B46196803F056F94B4618603B68012B2C
:1028800009D0CE4B1A68CB4B1A60CD4A136801337E
:10289000136003F0C3F8CD4A80231B0611680B4375
:1028A0001360EEE7C64A13680133C3490868106035
:1028B0000B6003F0B3F8C64B1B68002B03D1C54B6C
:1028C0001B68002B02D0C4480AF0ECFAB94B196817
:1028D000C24B994200D1EFE0BD4B1B68002B03D1E6
:1028E000BC4B1B68002B06D0B44B1B68B24A126865
:1028F000BB480AF007FBB24A136801331360AD4BC3
:10290000186880231B06984200D022E1B04B1B6858
:10291000002B03D1AF4B1B68002B05D0FEF75EFDEB
:102920000100B0480AF0EEFAFEF768FFAE4B1B68F4
:10293000A24A12689F4909689F480068AB4F3F68E8
:1029400001979F4F3F68009703F0B4FA03F066F8D1
:10295000FEF744FD07009E4B1B68002B03D19D4BE7
:102960001B68002B03D03900A1480AF0CBFA802362
:102970001B069F421DD1964B1B68002B03D1954B24
:102980001B68002B02D09B480AF08CFA964F974B9D
:1029900019683B681943874B1868FEF743FD874B5E
:1029A000196838680C38FEF73DFDFEF727FF03F085
:1029B00035F801233A009A43914611008E48FEF7FC
:1029C0003BFC48460C38FEF709FD8146804B1B68EE
:1029D000002B03D17F4B1B68002B03D0494687484F
:1029E0000AF090FA864B00221A600EE0734B1B68C7
:1029F0009A4682444844FEF791FC01005046FFF796
:102A0000A9FA7F4A1368013313607D4B18686A4B3B
:102A10001B689842EAD3694A1268032011000140FA
:102A2000024200D0012103339B085B189B00D3189E
:102A3000624A1360802109065E4B1868FEF7F2FCBB
:102A40003800FFF73DF802F0E9FF5A4A5A490B688F
:102A5000106843430B60594B1B681360584A136856
:102A60000133136002F0DAFF524B1A68524B1B68B5
:102A70009A420CDD504B01221A60504B1A684D4BA4
:102A80001A604F4A13680133136002F0C7FF4A4BC4
:102A900000221A60F1E7474A13689B00464908681C
:102AA000844663440B60454B1B681360444A1368BB
:102AB0000133136002F0B2FF454B1B68002B03D1BA
:102AC000444B1B68002B02D04E480AF0EBF9394BFF
:102AD000196880231B06994200D1ECE63C4B1B6829
:102AE000002B03D13B4B1B68002B06D0324B1B68DD
:102AF000324A126844480AF005FA314A1368013331
:102B000013602C4B1868354B984200D020E7304BAF
:102B10001B68002B03D12F4B1B68002B05D0FEF741
:102B20005DFC010039480AF0EDF9FEF767FE2E4B17
:102B30001B68224A12681F4909681F4800682B4F0A
:102B40003F6801971E4F3F68009703F0D3F902F0EA
:102B500065FFFEF743FC07001D4B1B68002B03D1EC
:102B60001C4B1B68002B03D0390029480AF0CAF916
:102B700080231B069F424FD1154B1B68002B03D1AE
:102B8000144B1B68002B02D022480AF08BF9164F19
:102B9000164B19683B681943064B1868FEF742FC50
:102BA000064B196838680C38FEF73CFCFEF726FE29
:102BB00002F034FF983A0020203B0020882A0020B1
:102BC00004220020EC2100206C220020F83A002092
:102BD000C8200020B01C00201C1001101000008034
:102BE0009011011044130110FC3A00200C3B00200E
:102BF0008C100110CC100110EC100110F01001101D
:102C00001822002064110110481001102411011035
:102C1000D81101101812011001233A009A4390466E
:102C20000D3B434499461800FEF7D8FB8346C54B3D
:102C30001B68002B03D1C44B1B68002B03D05946E3
:102C4000C2480AF05FF903235A469A4380231B06C1
:102C50009A4240D1BB4B1B68002B03D1BA4B1B6877
:102C6000002B02D0BA480AF01DF9BA4B9A46BA4B6B
:102C7000196853461B681943B84B1868FEF7D2FB16
:102C8000B74B1968534618680C38FEF7CBFBFEF7B4
:102C9000B5FDB44B9B4501D102F0C0FEA94B1B68AA
:102CA000002B03D1A84B1B68002B0BD0AE480AF0B9
:102CB000F9F840460438FEF791FB02003900AB48B2
:102CC0000AF020F9A7494846FEF7ACFB3800FEF7AA
:102CD000F7FE02F0A3FE9B4B1B68002B03D19A4B1F
:102CE0001B68002B02D0A2480AF0DCF8A14B00229E
:102CF0001A600EE08146D944994B1B68C018FEF754
:102D00000DFB01004846FFF725F99A4A1368013385
:102D10001360984B1868984B1B689842EAD3904A06
:102D20001268032011000140024200D00121033348
:102D30009B085B189B00D318894A13608021090601
:102D4000864B1868FEF76EFB3800FEF7B9FE02F0FE
:102D500065FE8A4F00233B60894A1360864B994683
:102D60007E4B18684B46196802F0FEFE4B46186011
:102D70003B68012B09D07A4B1A68784B1A60814A5C
:102D800013680133136002F049FE7F4A80231B065B
:102D900011680B431360EEE7774B1F6801239F43D5
:102DA000784B1A68511C19606C4B1B68C918381F86
:102DB000FEF738FB684B18683843FEF781FE02F0D7
:102DC0002DFE604B1B68002B03D15F4B1B68002B53
:102DD00004D0624B19686D480AF094F8694A136888
:102DE000013313605D4B1868694B984235D08023DE
:102DF0001B06984200D190E0FEF7F0FA070080230E
:102E00001B0698424BD0012302009A4391461100C1
:102E10006048FEF711FA0C235B429C46E1444846A9
:102E2000FEF7DCFA8346032302009A4380231B0645
:102E30009A424BD0504B1978FFF78CF88021474BC2
:102E400018680906FEF7EEFA58460430444B18603D
:102E50003800FEF735FE02F0E1FD3A4B1B68002B0F
:102E600003D1394B1B68002B02D04B480AF01AF8EB
:102E7000384F394B19683B681943384B1868FEF7CF
:102E8000D1FA3D4B19683868FEF7CCFA434B3A68E3
:102E90009A600122DA60FEF7B1FC02F0BFFD2D4F0F
:102EA0002D4B19683B6819432C4B1868FEF7BAFA8A
:102EB000314B19683868FEF7B5FA396808000C38E4
:102EC000FEF7B0FAFEF79AFC02F0A8FD214B9A46F5
:102ED000214B196853461B681943204B1868FEF7AD
:102EE000A1FA254B196853461868FEF79BFA53461A
:102EF000196808000C38FEF795FAFEF77FFC194BAD
:102F00009B4501D102F08AFD19004846FEF78AFA76
:102F10003800FEF7D5FD02F081FD0E4F0E4B19680B
:102F20003B681943FEF77EFA134B19683868FEF7C1
:102F300079FA1A4B3A681A6001225A60FEF75EFC71
:102F400002F06CFDC8200020B01C002038120110D7
:102F50006C120110FC3A00200C3B0020983A002033
:102F6000882A002003000080AC120110D412011046
:102F70001C13011018220020203B0020EC2100200F
:102F80006C22002004220020F83A00208413011053
:102F900010000080D8130110A81301102022002077
:102FA000E34B1B68002B03D1E24B1B68002B04D0C2
:102FB000E14B1968E14809F0A5FFE14A13680133C4
:102FC0001360DD4B1868DF4B984228D080231B0626
:102FD000984249D1D64B1B68002B03D1D54B1B68B7
:102FE000002B05D0FEF7FAF90100D74809F08AFF57
:102FF000D64FD74B19683B681943CF4B1868FEF77B
:1030000011FAD44B19683868FEF70CFAD24B3A68BB
:103010001A6004225A60FEF7F1FB02F0FFFCC44B79
:103020001B68002B03D1C34B1B68002B05D0FEF798
:10303000D5F90100C94809F065FFC44FC44B1968B0
:103040003B681943BC4B1868FEF7ECF9C14B196893
:103050003868FEF7E7F9C04B3A689A600422DA60F4
:10306000FEF7CCFB02F0DAFCFEF7B8F90700B04B34
:103070001B68002B03D1AF4B1B68002B03D039001A
:10308000B74809F03FFF80231B069F4221D1A84B80
:103090001B68002B03D1A74B1B68002B02D0B14843
:1030A00009F000FFA94FAA4B19683B681943A24BCE
:1030B0001868FEF7B7F9A74B19683868FEF7B2F938
:1030C000396808000C38FEF7ADF9FEF797FB02F0FF
:1030D000A5FC01233A009A4390461100A248FEF74E
:1030E000ABF80C235B4243449A461800FEF776F98E
:1030F0008346032302009A4380231B069A421ED074
:103100008B4B1B68002B03D18A4B1B68002B02D012
:10311000964809F0C7FE8F4B19685846FEF782F9AA
:1031200080210906844B1868FEF77CF95846043064
:103130008F4B18603800FEF7C3FC02F06FFC7C4B2D
:103140001B68002B03D17B4B1B68002B02D08948E6
:1031500009F0A8FE7D4B99467D4B19684B461B68CC
:103160001943754B1868FEF75DF97A4B19684B46A1
:103170001868FEF757F94B46196808000C38FEF737
:1031800051F9FEF73BFB7C4B9B4501D102F046FC1D
:10319000674B1B68002B03D1664B1B68002B0BD0C1
:1031A000764809F07FFE40460438FEF717F9020022
:1031B0003900734809F0A6FE6F495046FEF732F910
:1031C0003800FEF77DFC02F029FC6E4A80231B06C6
:1031D00011680B4313605A4A13680133136002F0FD
:1031E0001DFC5C4B99461F683800FEF7F7F84B460C
:1031F00018603800FEF72AF9514A1368013313604A
:1032000002F00CFC4C4B1A68524B1B689A4205D3D7
:103210005C4980231B06086803430B604D4B1A6012
:10322000534B1A68444B1A60454A136801331360C4
:1032300002F0F4FB424A136801331360FEF7DEFA32
:1032400002F0ECFB504F00233B60494B1B6801220E
:1032500013404E4A13603F4B9946374B18684B4614
:10326000196802F05FFC4B4618603B68012B05D0E3
:10327000334A13680133136002F0D0FB414A8023C4
:103280001B0611680B431360F2E7324A404B11688A
:103290001960294B19681160354A12681A60284A6A
:1032A00013680133136002F0B9FB2A4A394B1168E5
:1032B0001960214B196811602D4A12681A60204A62
:1032C00013680133136002F0A9FB224B99461A4F91
:1032D0001968386802F0F2FC4B4618602B4B1B68EB
:1032E0003B602D4B1A68224B1A60154A1368013354
:1032F000136002F093FB1E4B1868164B1B68984630
:1033000098424BD30C4B134A1968116018601D4A40
:1033100080231B0611680B431360074B1A68144B7C
:103320001A60074A13680133136002F077FBC04646
:10333000C8200020B01C0020983A0020E0130110A3
:10334000042200201000008044130110FC3A0020E9
:103350000C3B0020203B00202022002008140110FC
:103360005014011094140110B81401106C150110C0
:10337000882A0020C014011003000080F4140110FA
:1033800020150110F83A0020EC2100206C220020CA
:10339000E821002068220020EC3A0020002811D10A
:1033A000DC4F3B689A464146180008F0E3F8834634
:1033B0004146504608F0DEF81191D74B5A461A6044
:1033C0003960AAE7D54B9A46002352461360D14F85
:1033D0004246396802F0A6FCCF4B186053461B6882
:1033E0003B609AE7CE4A136801331360CA4A1168FA
:1033F0008C466344136002F011FBC74AC94B116845
:103400001960C44B19681160C74A12681A60C44A2F
:1034100013680133136002F001FBBE4B1A68C24B04
:103420001A60BD4B1B68002B08DBBA4B00221A60E8
:10343000BB4A13680133136002F0F0FAB54B012266
:1034400052421A60F4E7B34AB74B11681960B24BA5
:1034500019681160B54A12681A60B14A13680133DD
:10346000136002F0DBFAAC4B1968002916D1A94BA6
:103470001A68A94B1A60AC4B1B68AD498022120632
:10348000086802430A60A84AA249106808601360ED
:10349000A34A13680133136002F0C0FA4B1C09D031
:1034A0009C4B186808F03EF89B4A1160CA178B18AD
:1034B0005340E8E7974B1A6880231B069A42EFD1E6
:1034C0000023954A1360DEE79A4F3868FDF786FFC0
:1034D000934B18603B6810333B6002F09FFA8D4BB2
:1034E00018680430FDF77AFF01008D4A1368013334
:1034F0001360012818D90139864F3B68181DFDF764
:1035000091FF3868FDF76AFF411C874B19603868E6
:10351000FDF788FF824A804B1B681168CB1A136045
:10352000FEF7BEFC02F07AFA7F4B00221A600139E6
:10353000784B18680430FDF775FF02F06FFA754B91
:10354000794A19681160744A12681A60774B1B68CF
:10355000002B09D1784B1A686F4B1A60704A1368B8
:103560000133136002F05AFA744B1A686A4B1A60FE
:10357000F4E7684A6C4B11681960674B1968116071
:103580006F4A12681A60664A13680133136002F0CA
:1035900045FA604A644B116819605F4B1968116005
:1035A000684A12681A605E4A13680133136002F0B9
:1035B00035FA594A624B11681960564B1968116007
:1035C000594A12681A60564A13680133136002F0B0
:1035D00025FA514A5B4B116819604E4B196811600E
:1035E000514A12681A604E4A13680133136002F0A0
:1035F00015FA484B4C4A19681160474A12681A601C
:103600004B4B1B68002B0CDB434A012111605B0014
:103610005B08474A1360424A13680133136002F0A3
:10362000FDF93D4A00211160F1E73A4B3E4A196825
:103630001160394A12681A60434B1B68002B08D08E
:10364000354B01221A60364A13680133136002F0C9
:10365000E5F9314B00221A60F5E7314A136801336E
:103660001360324B1B68002B0ED12B4B1868324B6A
:103670001B681B1A002B01DD02F0D0F9FEF758F988
:10368000FEF7BCF802F0CAF9234B18682B4B1B68F5
:103690001B1A002B01DD02F0C1F9FEF749F9FEF714
:1036A000ADF802F0BBF91C4B196800291ED04B1C69
:1036B00016D0CA178B1853409946164B1868C31773
:1036C000C7185F40119707F02DFF134B1860C31701
:1036D000C0185840012318434B465843381A0DE090
:1036E0000C4B1A6880231B069A42E2D10E4B1868D5
:1036F0000F4A80231B0611680B4313600A4B054ACF
:10370000196811601860064A13680133136002F0EB
:1037100085F9C046983A0020203B00206C2200200A
:1037200004220020E0210020882A00200C3B0020F9
:10373000F83A0020FC3A002008220020D43A002069
:1037400064220020383B0020041B0020D74B1B685C
:10375000002B16D1D64B1B68002B18D1D54B1B68FC
:10376000D54A1268012A15D0D04B1B68002B31D1E5
:10377000D24B00221A60D24A13680133136002F060
:103780004DF9D04B1968D04809F0BCFBE2E7CF4BAC
:103790001B68E5E7CB4A12689B1AE5D4CC4B186846
:1037A000FDF71CFE431CDFD1C04B1B68002B0BD167
:1037B000C24F3968C64B1868FDF734FE01233B60E1
:1037C000C04BC44A1A60D6E7BC4B1968C24809F01E
:1037D00099FBEDE7C14809F065FBC9E7B34B1B68EE
:1037E000002B1ED1B74B1868BD4B984223D1AF4B6D
:1037F0001B68002B1BD1BB4B1B68002B58DD012322
:10380000AD4A1268012A55D0A84B1B68002B6CD119
:10381000AA4B00221A60AA4A13680133136002F00F
:10382000FDF8A84B1968B04809F06CFBDAE7AF481F
:1038300009F038FBDFE7FDF7D1FD07009B4B1B6864
:10384000002B10D180231B069F4211D0A04B1B6878
:10385000974A12681343BB4215D0944B1B68002B48
:1038600021D10123CCE70100A14809F04BFBE9E796
:103870008E4B1B68002B01D10023C1E79D4809F046
:1038800011FB0023BCE7894B1B68002B07D180216B
:1038900009068C4B1868FDF7C5FD0023B0E7964874
:1038A00009F000FBF3E7954809F0FCFA0123A7E7CC
:1038B0000023A5E7012BA7D1854B1868FDF78EFDE6
:1038C000431CA1D1794B1B68002B08D17B4F396871
:1038D0007F4B1868FDF7A6FD01233B609BE7774B04
:1038E0001968874809F00EFBF0E7864809F0DAFA14
:1038F0008EE7714B1B68012B0CD0704B00221A60B5
:10390000704B1A686C4B1A606D4A13680133136070
:1039100002F084F86E4B1868FDF760FD431CECD193
:10392000664F39686A4B1868FDF77CFD01233B60E0
:10393000E6E7754B00221A60744B9946614F3A686E
:103940001A605E4B9A465C4B98465346196843464C
:10395000186802F019F9534618604B461B68424636
:1039600013603B60564A13680133136002F056F847
:10397000524A1368DB431360514A136801331360E2
:1039800002F04CF84C4A4D491368086843400B60FC
:103990004C4B1B6813604A4A13680133136002F0F2
:1039A0003DF8464A13689B001360454A136801338B
:1039B000136002F033F8414B9A463F4B9946414F12
:1039C00053461A684B461968386802F037F953466F
:1039D00018604E4B1B684A4613603B60384A1368B8
:1039E0000133136002F01AF8344B9A46324B994671
:1039F000344F53461A684B461968386802F0FCF891
:103A000053461860414B1B684A4613603B602C4A82
:103A100013680133136002F001F83B4B00221A6077
:103A2000284B1B6801321340384A91461360234BE0
:103A30009A46214F1968386802F062F853461860B8
:103A40004B461B683B601E4A13680133136001F04C
:103A5000E5FF2D4F00233B601A4B1B6801221340EA
:103A60002A4A1360154B9946134B18684B46196840
:103A700002F07AF84B4618603B68012B05D0104ADB
:103A800013680133136001F0C9FF214A80231B062C
:103A900011680B431360F2E7094A1368013313609E
:103AA000064B1868FEF70CF801F0B8FFB01C0020B8
:103AB0000C3B002008220020983A0020203B0020E8
:103AC00004220020882A00208C150110D43A0020FE
:103AD000FC3A002002000080AC150110D81501103E
:103AE000100000805C170020041601102816011039
:103AF0004416011080160110A8160110EC160110D2
:103B0000101701103C170110EC2100206C2200203E
:103B1000F83A0020DE4B1F68380007F0D1FC01287E
:103B20000CD0DB4BDB4A1A60DB4B1A68DB4B1A60AC
:103B3000DB4A13680133136001F070FF7B1E3B43C7
:103B4000D64A12681100994309D1974202D9D04B45
:103B50001A60E9E77B00D31ACD4A1360E4E7D14B42
:103B60001B68002B08D1CA4B1A68CC4B1B68134248
:103B700006D1C74A1360D7E7CB4809F093F9F2E7BB
:103B800052421343C24A1360CEE7C44B1978C04F68
:103B90003868FEF7DFF9C04B1A683A6000221A60F5
:103BA000BF4A13680133136001F038FFB84F39681A
:103BB000BE48FDF753FB3A68BD4B196839601A607F
:103BC000B74A13680133136001F028FFB94B196835
:103BD000AF4F3868FDF726FCB74B19683B68181DD6
:103BE000FDF720FCAD4B1A683A60AB4A12681A60C8
:103BF000AB4A13680133136001F010FFAF4B196833
:103C0000A34F3868FDF70EFCAD4B19683B68181DD3
:103C1000FDF708FCA14B1A683A609F4A12681A60C7
:103C20009F4A13680133136001F0F8FE9B489A4BDA
:103C300002681A6096490B6803221A4002609B10C2
:103C40000B60974A13680133136001F0E7FE904B55
:103C50001A681F2A0ED8914B1B68D3408C4A1360F8
:103C60008D4B1A688D4B1A608D4A136801331360AF
:103C700001F0D4FE864B00221A60F1E7844B1A68EB
:103C80001F2A0ED8854B1B689340814A1360824BD4
:103C90001A68824B1A60824A13680133136001F07C
:103CA000BDFE7B4B00221A60F1E77C4A7A4B11681B
:103CB0001960774B19681160802212061A60784AE1
:103CC00013680133136001F0A9FE764B1B68002BCB
:103CD0000BD1774B18680C387A49FDF7A3FB704A73
:103CE00013680133136001F099FE774809F0DAF8A0
:103CF000EFE76C4B1B68002B20D101216C4F494230
:103D00003868FDF78FFB664A136801331360386823
:103D10000C38FDF763FB6D4B984201D101F07EFE3C
:103D2000604B1B68002B16D1614B18680C38684932
:103D3000FDF778FBFDF762FD01F070FE654809F0C4
:103D4000B1F85B4B18680C38FDF748FB010062487E
:103D500009F0D8F8D1E7614809F0A4F8E4E7514B3D
:103D60001B68002B0DD14E4F3B6801333B60504B1D
:103D70001868FDF733FB3B689C466044386001F0EF
:103D80004DFE4B4B1868FDF729FB0100544809F024
:103D9000B9F8E8E7414A3E490B68106803400B60F8
:103DA0003D4B1B6813603E4A13680133136001F0FA
:103DB00035FE3C4B1B68002B15D1354B1B68012B86
:103DC00017D0334B1B68012B30D0314B1B68012BB4
:103DD00045D0314B1A68314B1A60314A13680133B0
:103DE000136001F01BFE2D4B19683E4809F08AF85C
:103DF000E3E72F4B18681038FDF7F0FA344B984280
:103E0000DFD1284B1B68002B0CD1294F38681038A4
:103E10002C49FDF707FB38681438204B1968FDF76B
:103E200001FBD6E7304809F03DF8EEE7204B186873
:103E30001038FDF7D3FA234B9842C6D1174B1F68B1
:103E40001B4B18681438FDF7C9FA381ABDD4154B46
:103E50001B68002BBDD0254809F024F8B9E7144BA6
:103E600018681038FDF7BAFA164B9842B1D10D4BCD
:103E70001B68002B07D10E4B18681438074B1968C4
:103E8000FDF7D0FAA5E71A4809F00CF8F3E7C046A9
:103E9000203B0020EFBEADDE882A0020983A0020AB
:103EA00004220020B01C0020681701109817011090
:103EB000FC3A0020E0210020E821002068220020B8
:103EC000E83A002001000080A017011003000080E4
:103ED00002000080C4170110F0170110141801101F
:103EE0003C1801105C18011080180110A81801106E
:103EF000F0180110D94B1B68002B15D1D84B1B684B
:103F0000012B17D0D64B1B68012B5DD0D44B1B68FF
:103F1000012B6CD0D34B1A68D34B1A60D34A136869
:103F20000133136001F07AFDCF4B1968D04808F0D7
:103F3000E9FFE3E7CC4B1868FDF750FA80231B0636
:103F40009842DFD1C54B1B68002B17D1C64B1868B0
:103F5000C84B984230D1C14B1B68002B12D1C64BC5
:103F60001B68002B16DDBD4B1B68002B0ED1C34B0D
:103F700018680C38C249FDF755FACBE7C14808F07C
:103F800091FFE3E7C04808F08DFFE8E7BF4808F07D
:103F900089FFECE7B14B1B68002B09D1B74B1968BF
:103FA000BB4B1B681943B04B1868FDF73BFAB1E7F0
:103FB000B84808F077FFF1E7B04B1968B44B1B68BD
:103FC0001943FDF72FFAA5E7A74B1868FDF706FA86
:103FD000AA4B1B68AE4A12681343984296D19F4B76
:103FE0001B68002B96D0AC4808F05CFF92E79B4B17
:103FF0001B68002B06D1A14B18680C38A049FDF7AF
:1040000011FA87E7A54808F04DFFF4E7944B1B68C9
:10401000002B05D1954A13680133136001F0FEFCB3
:10402000964B18680C389649FDF7FCF9F2E78C4B73
:104030001B68002B2EDC9A4B8A4A13608A4A136055
:10404000874A1360894A13680133136001F0E6FC64
:10405000854B1B689946B944824B18683818FDF7A0
:104060005DF901004846FDF785F901377C4B1B6877
:10407000BB42EDD87B4A1268032001001140104278
:1040800000D0012103339B085B189B00D318754AAD
:104090001360D7E70027E9E7734A71491368086896
:1040A00003430B606F4B1B681360704A1368013346
:1040B000136001F0B3FC6A4B1B68002B06DB002B7E
:1040C0000EDB694B1B68002B0AD003E0664A1268BE
:1040D0000132F4D0734A80231B0611680B4313602E
:1040E000604B1A68604B1A60604A136801331360B2
:1040F00001F094FC5C4B1B68002B11D169498022B4
:104100001206086802430A60554A1360554B1A6844
:10411000554B1A60554A13680133136001F07EFC59
:104120004F4A12689342EFD95E498022120608680E
:1041300002430A60E8E7514F38680C385A49FDF7E6
:1041400071F9386810385949FDF76CF9474A136816
:104150000133136001F062FC554B00221A60414BA1
:104160001B6801321340534A914613603C4B9A46F8
:104170003D4F1968386801F0E5FC534618604B461E
:104180001B683B60394A13680133136001F046FC39
:10419000334A494B11681960334B19681160314A31
:1041A00012681A60314A13680133136001F036FC5B
:1041B0002A4B1B68002B26D10121304F4942386819
:1041C000FDF730F9294A13680133136038680C3859
:1041D000FDF704F92A4B984201D101F01FFC1F4B57
:1041E0001B68002B1CD1254F38681438FDF7F6F8F2
:1041F000FDF79EFB38680C382C49FDF713F9FDF7E5
:10420000FDFA01F00BFC2D4808F04CFE1B4B186822
:104210000C38FDF7E3F80100294808F073FECBE7FE
:10422000284808F03FFE154B18681438FDF7D6F8FB
:104230000100254808F066FED5E70B4A08491368D7
:104240000868844663440B60064B1B681360074A8A
:1042500013680133136001F0E1FBC046B01C00207D
:10426000203B0020882A0020983A002004220020C9
:1042700030190110100000805C170020FC3A00206B
:10428000030000805419011088190110A4190110AD
:104290000C3B0020D4190110081A0110401A01101B
:1042A000EFBEADDEF83A0020010000800200008081
:1042B000EC2100206C220020E83A00207C1A01103A
:1042C000A81A0110CC1A0110F41A0110D54F0023BE
:1042D0003B60D54A1360D54B9946D54B18684B4681
:1042E000196801F061FC4B4618603B68012B09D04E
:1042F000D04B1A68CE4B1A60CF4A13680133136053
:1043000001F08CFBCD4A80231B0611680B43136020
:10431000EEE7C64A1368CA490B60CA490B60CA4B2C
:1043200001211960C24B19681160C24A12681A60F3
:10433000C14A13680133136001F070FBBE4A136871
:1043400001331360BD4B1B68002B01DB01F066FBE2
:10435000FDF754FA01F062FBB44B1F68380007F018
:10436000AFF801280CD0B24BB04A19681160B14ABD
:1043700012681A60B04A13680133136001F04EFBF3
:1043800080231B069F42EED0A94B1A68BA4202DA7C
:104390007B429A42E7DAA94A80231B0611680B4345
:1043A0001360E0E7A54A8023116899431160A24A8F
:1043B00013680133136001F031FBA04A80231168B8
:1043C0000B4313609C4A13680133136001F026FB12
:1043D000974B984A19681160944A12681A60974B73
:1043E0001B681B0608D5914B01221A60924A13687C
:1043F0000133136001F012FB8C4B00221A60F5E7C9
:10440000924B1A68CF235B009A4201D101F0F7FA70
:10441000874B884A19681160844A12681A60864A74
:1044200013680133136001F0F9FA884B1A68CF233F
:104430005B009A4201D101F0E2FA7C4B1A68844B8E
:104440001A607B4B1A68834B1A607A4B1A68824B4E
:104450001A60794A13680133136001F0DFFA7B4B6D
:104460001A68CF235B009A4201D101F0C8FA6F4B62
:104470001B68002B03DB764B1B68002B37DA774B6E
:10448000734A1360734A1360734A13606A4A13686D
:104490000133136001F0C2FA664B1B68C018FCF7C9
:1044A0003DFF0100624B1868119B9C466044FCF77D
:1044B00061FF119B0133119311985C4B1B6898426B
:1044C000EAD35C4A644B1B6811688C4663441360F2
:1044D000574A604B1B6811688C4663441360013770
:1044E0005B4B1B68BB42CAD900231193E4E700274A
:1044F000F6E7564B1A68CF235B009A4201D101F0D0
:104500007EFA4A4B1B68002B03DB514B1B68002BC8
:1045100039DA524B4E4A13604E4A13604E4A1360CA
:10452000454A13680133136001F078FA119B013397
:10453000119311983D4B1B6898420ED23D4B1B685E
:10454000C018FCF7EBFE011EF0D0394B1868119B28
:104550009C466044FCF70EFFE8E7364A3E4B1B687A
:1045600011688C4663441360314A3A4B1B681168EA
:104570008C46634413600137354B1B68BB42C8D976
:1045800000231193D5E70027F6E7304B1A68CF23B5
:104590005B009A4201D101F032FA244B1B68002BD8
:1045A00003DB2B4B1B68002B39DA2C4B284A13609A
:1045B000284A1360284A13601F4A136801331360A6
:1045C00001F02CFA119B013311931198174B1B68C2
:1045D00098420ED2174B1B68C018FCF79FFE011EB5
:1045E000F0D1134B1868119B9C466044FCF7C2FE47
:1045F000E8E7104A184B1B6811688C466344136047
:104600000B4A144B1B6811688C46634413600137D6
:104610000F4B1B68BB42C8D900231193D5E7002775
:10462000F6E7C046EC2100206C220020203B002051
:10463000983A0020882A002004220020F83A00201E
:1046400008220020D43A00201422002084100020E8
:10465000E42100208C3A002010220020EFBEADDEC5
:10466000D84B1A68C8239B009A4201D101F0C7F9C0
:10467000D54B1B68002B20D1D4490F68D44A13684E
:104680009B00D44803603B02D34803400B60F90D04
:10469000FF230B401360380001F065FB002818D0A1
:1046A00000231193CB4A136811990B431360CB4A33
:1046B00013680133136001F0B1F9C44B1F68381C53
:1046C00008F05EF902000B003900C54808F01AFC3A
:1046D000D2E7380001F03DFB002802D002231193FD
:1046E000E0E7380001F045FB002802D003231193D6
:1046F000D8E7B74B1B68002B08D1B44B1B68002BC5
:1047000004D001231193B24A1360CBE70123119324
:10471000AE4A80231B0611680B431360C2E7A94B06
:104720001A68C8239B009A4201D101F068F9AD4B89
:104730001868FCF753FEA74B1A68801A03001F3352
:104740000CDA0023A34A1360A14A13609F4A136046
:10475000A24A13680133136001F060F9FF2803DDFA
:104760009C4BFF221A60F3E7002802DD994B18608A
:10477000EEE70122121A974B00211960934B9946DC
:104780001B681193924F4B461968386801F056FA2E
:10479000119B18434B461860934B1B683B60D7E74F
:1047A000884B1A68C8239B009A4201D101F027F96F
:1047B000884B1968FE291BDCCA05854B1868030A5B
:1047C0005B025B0A134302061CD4804A13607F4BD2
:1047D0001A687F4B1A60490A7E4B19607A4B1B6836
:1047E000002B1FD17D4A13680133136001F016F9C5
:1047F00001F0ACFA754B1860754B1B685B00754A8D
:104800001360EBE77F22024070480068024303D048
:1048100001336E4A1360DAE70133012293436B4A96
:104820001360D4E7694B1F68381C08F0A9F8020030
:104830000B0039006A4808F065FBD3E7614B1A6842
:10484000C8239B009A4201D101F0D9F8604B614A1C
:10485000196811605D4F3A681A6001F077FA3860A4
:104860005E4A13680133136001F0D8F800235F4AF1
:1048700013605D4A1360554B186880231B069842ED
:1048800005D1534B1A6880231B069A4212D0504B15
:10489000196801F0EFF94D4B18604E4B4C4A1968FE
:1048A0001160514A12681A604C4A13680133136050
:1048B00001F0B4F84C4B18604D4A80231B06116878
:1048C0000B431360E9E73F4B1A68C8239B009A42E9
:1048D00001D101F094F83D4B186801F03AFA002834
:1048E0000BD0434A80231B0611680B4313603B4ADD
:1048F00013680133136001F091F8344B186801F02C
:1049000038FA0028F3D0ECE72E4B1A68CF235B006F
:104910009A4201D101F073F8002700E001371F2F00
:104920001AD82A4B9A462A4B9946012253461968AF
:104930004B46186801F060F9534618602A4B1B6813
:104940004A4613602B4A1268002AE7D0214A1268AF
:1049500053401F4A1360E1E71D490A681B4B1A6068
:104960001C4B186808601A601C4A136801331360F6
:1049700001F054F8134B1A68CF235B009A4201D11F
:1049800001F03DF8002700E00137072F34D80F4B26
:104990009A460F4B99460122534619684B461868B0
:1049A00001F02AF9534618600F4B1B684A46136002
:1049B000104A1268002AE7D0064A12685340044A97
:1049C0001360E1E784100020B01C0020203B002091
:1049D000983A0020882A002000FFFF7F0422002050
:1049E000201B0110FC3A00206C220020EC2100204A
:1049F000F83A0020943A0020EC490A68EC4B1A601F
:104A0000EC4B186808601A60EB4A136801331360B6
:104A100001F004F8E94B1A68CF235B009A4201D1F8
:104A200000F0EDFFE24F386806F04AFDDF4B1A68F0
:104A3000944660443860DF4A12681A60DE4A1368A0
:104A40000133136000F0EAFFDC4B1A68CF235B00F0
:104A50009A4201D100F0D3FFD54F3868FCF786F8B1
:104A60003860D54A13680133136000F0D7FFD34B89
:104A70001A68CF235B009A4201D100F0C0FFCC4BF3
:104A80001F68002F0BD100221A60CA4B1A68C74B4F
:104A90001A60C94A13680133136000F0BFFF202F6A
:104AA0000BD9C74B1B68002B11D1C14B1F683F2F7F
:104AB00011D90020BE4B1860E7E7BC4B1868FCF723
:104AC00055F82023DB1BD840B94B1860DDE7BD4803
:104AD00008F0E8F9E9E7B54B1868FCF747F83B0040
:104AE000203B9840E6E7B24B1968B04A106818605E
:104AF000B04B186810601960AF4A13680133136037
:104B000000F08CFFB04B1F68402F2ED0202F30D0EC
:104B1000AE4808F0C7F9AE4B1A685B680C920D936B
:104B2000402711AB00930C9A0D9B390004A802F0AA
:104B3000C9F9049A059B0A920B939D4F3868FDF7BB
:104B400047FA386808301199FCF76CFC974B1A68E3
:104B50003A60984A12681A609E4B01221A60964A7F
:104B600013680133136000F059FF0CA8FCF736F806
:104B7000D7E710A8FCF79CF8109B0C9300230D932B
:104B8000CFE78E4B1A68CF235B009A4201D100F029
:104B900036FF864A1368DB0085490868844663440B
:104BA0000B60844B1B681360834A136801331360E6
:104BB00000F034FF814B1A68CF235B009A4201D189
:104BC00000F01DFF7A4B984619688348FCF746FBB6
:104BD000764F3B68D90043461B689C46614404A855
:104BE000FDF7E2F904980599FCF748F8714B1B684A
:104BF000424613603B60704A13680133136000F053
:104C00000DFF6E4B1A68CF235B009A4201D100F072
:104C1000F6FE01F061FE714B1B68002B05D0704A57
:104C200080231B0611680B4313606A4B01221A6034
:104C3000614A13680133136000F0F0FE5F4B1A689D
:104C4000CF235B009A4201D100F0D9FE584B19687E
:104C50006448FCF703FB5C4B1B68402B19D062488F
:104C600008F020F95A4B1A685B680C920D93504F6C
:104C70000C9A0D9B3868FDF7ABF94C4B1A683A60FB
:104C80004C4A12681A604C4A13680133136000F0F2
:104C9000C5FE0CA8FBF7A2FFE9E7454F396804A859
:104CA000FDF782F9049A059B0C920D933868083041
:104CB000FCF794FB02000C980D9902F08DF93B4B28
:104CC0001A683A603B4A12681A60424B01221A6025
:104CD000394A13680133136000F0A0FE374B1A689D
:104CE000CF235B009A4201D100F089FE304B9846F9
:104CF00019683E48FCF7B2FA2C4F3B6898004346CF
:104D00001B689C466044FDF73BF9FCF715F8294BFE
:104D10001B68424613603B602E4B01221A60264AF4
:104D200013680133136000F079FE244B1A68CF2317
:104D30005B009A4201D100F062FE2D492D48FCF73C
:104D400013F81D4A13680133136000F067FE1B4B14
:104D50001A68CF235B009A4201D100F050FE144B39
:104D600019682548FCF77AFA174B1B68202B19D0D5
:104D7000224808F097F8224B1B6810930C4F1099AB
:104D80003868FDF707F9094B1A683A60094A126852
:104D90001A60104B01221A60074A1368013313602E
:104DA00000F03CFE10A8FBF783FFE7E7983A0020ED
:104DB000203B0020882A00200422002084100020AC
:104DC000B01C00203C1B0110A03A0020741B0110F5
:104DD000107E0020903A0020A81B01103C3B0020D0
:104DE000F83A0020B41B0110C01B0110F81B011081
:104DF000597B001001720010041C0110101C0110DE
:104E00000C7E0020EC4B1A68CF235B009A4201D144
:104E100000F0F5FDE949EA48FBF7A6FFE94A136807
:104E20000133136000F0FAFDE34B1A68CF235B00F7
:104E30009A4201D100F0E3FDE34F3968E348FCF703
:104E40000DFA396804A8FDF7AFF804980599FBF747
:104E500015FFDF4B1A683A60DE4A12681A60D94AB9
:104E600013680133136000F0D9FDD34B1A68CF23C8
:104E70005B009A4201D100F0C2FDD749D748FBF749
:104E800073FFD04A13680133136000F0C7FDCA4BAB
:104E90001A68CF235B009A4201D100F0B0FDD049DF
:104EA000D048FBF761FFC74A13680133136000F075
:104EB000B5FDC14B1A68CF235B009A4201D100F0C7
:104EC0009EFDC14F3968C848FCF7C8F93868FDF73E
:104ED00057F8FBF731FFBE4B1A683A60BD4A1268BB
:104EE0001A60B84A13680133136000F097FDB24BA3
:104EF0001A68CF235B009A4201D100F080FDBB49C4
:104F0000BB48FBF731FFB24AB24B11681960AE4B98
:104F10001968116001221A60AA4A136801331360EC
:104F200000F07CFDA44B1A68CF235B009A4201D1AC
:104F300000F065FDA64AA74B11681960A24B1968DD
:104F4000116000221A60AB4B01321A609D4A13684F
:104F50000133136000F062FD974B1A68CF235B00AA
:104F60009A4201D100F04BFDA34B1B68402B18D097
:104F7000202B1CD0A14807F095FF0120944A954BA7
:104F800011681960904B19681160421E90411860B9
:104F9000984B01221A608B4A13680133136000F0AA
:104FA0003DFD954B9868D96801F0D2F9E6E7924B40
:104FB000986801F0BDFAE1E77F4B1A68CF235B00E8
:104FC0009A4201D100F01BFD8B4B1B68402B16D081
:104FD000202B1FD08A4807F065FF00207C4A7D4BBC
:104FE00011681960784B196811601860814B0122B3
:104FF0001A60744A13680133136000F00FFD0AA9A8
:105000000CA8FBF709FE0A9A0B9B0C980D9902F06D
:1050100045FBE3E70FA910A8FBF764FE0F99109872
:1050200002F0F6FEDAE7644B1A68CF235B009A427F
:1050300001D100F0E4FC704B1B68402B18D0202BF2
:105040001CD0704807F02EFF0120614A614B1168A7
:1050500019605D4B19681160421E90411860654BE4
:1050600001221A60574A13680133136000F0D6FC1E
:10507000614B9868D96801F0EDF9E6E75E4B9868F6
:1050800001F0B3FAE1E74C4B1A68CF235B009A4278
:1050900001D100F0B4FC5C495C48FBF7A5FE4C4A2A
:1050A0004C4B11681960484B196811601860454AEB
:1050B00013680133136000F0B1FC3F4B1A68CF2333
:1050C0005B009A4201D100F09AFC51495148FBF72C
:1050D0008BFE3F4A3F4B116819603B4B19681160CA
:1050E0001860384A13680133136000F097FC324BA4
:1050F0001A68CF235B009A4201D100F080FC324F46
:105100003868FCF76BF902F0E1FFFBF715FE304B56
:105110001A683A602F4A12681A60364B01221A60E8
:10512000284A13680133136000F078FC224B1A6898
:10513000CF235B009A4201D100F061FC224F386816
:10514000FCF74CF9010004A802F0D2FC0498059980
:10515000FBF794FD1E4B1A683A601E4A12681A60EB
:10516000244B01221A60174A13680133136000F0C0
:1051700055FC114B1A68CF235B009A4201D100F015
:105180003EFC114F3868FCF729F9010004A802F031
:10519000C9FC04980599FBF771FD0D4B1A683A603C
:1051A0000C4A12681A60134B01221A60054A1368F0
:1051B0000133136000F032FC84100020697B001082
:1051C0002572001004220020203B0020481C011002
:1051D000983A0020882A0020797B0010497200103C
:1051E000897B00106D720010541C01107D7C001032
:1051F000C9730010903A0020A03A0020601C0110F2
:10520000941C0110CC1C0110457D0010817500100C
:10521000CD7D00104D760010D14B1A68CF235B0076
:105220009A4201D100F0EBFB01F056FBCD4B1B681D
:10523000002B15D0002701F0F7F9CA4B00221A60A5
:10524000C94ACA4B11681960C94B196811601F60BF
:10525000C84B01221A60C84A136801331360DDE3AA
:105260000127E8E7BE4B1A68CF235B009A4200D1C2
:10527000C5E3C24B1B68402B12D0202B1BD0C0486B
:1052800007F010FEBD4B00221A60BE4A12689A60F9
:10529000B84B01221A60B84A136801331360BDE3AA
:1052A000B64FBA68FB6804A802F032FB049A059B6B
:1052B000BA60FB60ECE7B14FB86802F0C3FEB860BB
:1052C000E6E7A74B1A68CF235B009A4200D196E32A
:1052D000AA4B1B68402B19D0202B20D0AA4807F0DE
:1052E000E1FDFBF753FCA949A14F3868FCF79AF898
:1052F0009D4B1A683A609D4A12681A609D4B0122C4
:105300001A609D4A13680133136087E30CA8FBF70A
:1053100065FC0C980D9902F089FB0100E4E710A8E8
:10532000FBF7C6FC109802F095FE0100DCE78C4B01
:105330001A68CF235B009A4200D160E3944B18684F
:10534000FBF7FAFC8B4B01221A608B4A136801337E
:10535000136063E3824B1A68CF235B009A4200D14B
:105360004DE38C4B18685968FBF788FC814B012290
:105370001A60814A1368013313604FE3784B1A684F
:10538000CF235B009A4200D139E37C4B1B68402B52
:1053900014D0202B1DD0804807F084FD774B0022CD
:1053A0001A607E4A116852689960DA60714B012276
:1053B0001A60714A1368013313602FE36F4FBA68A4
:1053C000FB6804A802F0AAF9049A059BBA60FB6086
:1053D000ECE76A4FB86802F07DFDB860E6E7604B25
:1053E0001A68CF235B009A4200D108E36C4F102269
:1053F00039006C4807F050FC10226049380007F073
:105400004BFC5C4B01221A605B4A1368013313604A
:1054100004E3534B1A68CF235B009A4200D1EEE2BB
:10542000564B99461022190006A807F035FC5C4F30
:1054300010223900484607F02FFC102206A9380038
:1054400007F02AFC4B4B01221A604B4A13680133C8
:105450001360E3E2424B1A68CF235B009A4200D10B
:10546000CDE2434F39685048FBF7F8FE396804A88D
:10547000FCF79AFD04980599FBF700FC3F4B1B686D
:10548000402B18D0494807F00DFDFBF77FFB3B4B45
:1054900000221A60414A116852689960DA60324B02
:1054A000334A19681160314A12681A60324A136827
:1054B00001331360B2E20AA90CA8FBF7D9FB0A9AE0
:1054C0000B9B009201930C9A0D9B04A801F098FE8F
:1054D00004980599FBF7D2FBE1E7214B1A68CF232B
:1054E0005B009A4200D18AE2214F39683048FBF7CD
:1054F000B5FE396804A8FCF757FD04980599FBF739
:10550000BDFB1E4B1B68402B18D02A4807F0CAFC75
:10551000FBF73CFB194B00221A60204A11685268C5
:105520009960DA60104B124A196811600F4A1268CC
:105530001A60114A1368013313606FE20AA90CA8BC
:10554000FBF796FB0A9A0B9B009201930C9A0D9B1A
:1055500004A801F079FE04980599FBF78FFBE1E7B9
:10556000841000203C3B0020983A0020882A00202C
:10557000203B0020903A002004220020A03A002086
:10558000041D01100C7E0020381D0110EFBEADDEA1
:10559000007E0020B07D0020701D0110107E0020D4
:1055A000103B0020283B0020A41D0110B01D01105D
:1055B000E81D0110F41D0110D44B1A68CF235B00C5
:1055C0009A4200D11BE2D24F3968D248FBF746FE1F
:1055D0003868FCF7D5FCFBF7AFFBCF4B1B68202BE3
:1055E00016D0CE4807F05EFCFBF7D0FACA4B00227B
:1055F0001A60CB4A12689A60CA4BC54A1968116092
:10560000C94A12681A60C94A13680133136005E277
:105610000FA910A8FBF78AFB0F99109802F09CFACB
:10562000FBF78AFBE8E7B94B1A68CF235B009A4285
:1056300000D1E4E1B64A1768BA4B19681160BA4A5A
:1056400012681A60B94A136801331360B84B1B68BB
:10565000002B0BD1232F0FD8002F00D114E1232FC3
:1056600000D911E1BF00B34AD3599F46C0239B0024
:10567000F818FCF7BDFCEDE79C2F00D004E100F02A
:10568000D3FFAD4B00221A60AC4B01321A60C5E16A
:10569000A14B1B68402B15D0202B20D0A84807F029
:1056A00001FC9D4B00221A60A64A1168526899605D
:1056B000DA600023A44A1360A44A13609F4B0122BE
:1056C0001A60ABE1944B98469A68DB6804A801F035
:1056D0003FFE4146049A059B8A60CB60E9E78E4B0A
:1056E0009846986802F09EFA43469860E1E70023E6
:1056F000954A1360954A1360904B01221A608DE120
:1057000093499448FBF79EFB88E10321924800F0FF
:10571000CFFD83E10421914800F0CAFD7EE1012123
:105720008F4800F0C5FD79E17B4B1B68202B0ED024
:105730008C4807F0B7FB784B00221A60814A116849
:1057400052689960DA607D4B01221A6066E1724B03
:105750009846402342461360916804A802F06AFB11
:105760004146049A059B8A60CB60ECE76A4B1B6854
:10577000402B0CD07C4807F095FB674B00221A6049
:10578000674A12689A606D4B01221A6046E1624BCB
:1057900098462023424613609068D16801F092FF3A
:1057A00043469860EFE771497148FBF74BFB35E1E1
:1057B00070497148FBF746FB30E170497048FBF7D0
:1057C00041FB2BE1544B1B68402B0CD06D4807F07C
:1057D00069FB514B00221A60514A12689A60574B7C
:1057E00001221A601AE14C4B98462023424613606E
:1057F0009068D16802F0F0F843469860EFE7464BB6
:105800001B68402B08D0202B0CD05F4807F04AFBC8
:105810004A4B01221A6001E13F4B9868D96801F0B8
:10582000D3FFF5E73C4B986802F098FBF0E73A4B62
:105830001B68402B08D0202B0CD0544807F032FBBB
:105840003E4B01221A60E9E0334B9868D96802F0B8
:105850000DF8F5E7304B986802F0BAFBF0E74C49D9
:105860004C48FBF7EFFAD9E04B494C48FBF7EAFA12
:10587000D4E002214A4800F01BFDCFE001232E4A6C
:1058800013602E4A1360C9E0464B1B689846464B8E
:10589000187800231E4A12684146FBF767FC020095
:1058A0004146424807F02EFBFBF7A0FBB6E0174B42
:1058B0001A68CF235B009A4200D1A0E0144B9846AF
:1058C00019683B48FBF7CAFC43461868FCF758FBCD
:1058D000FBF732FA104B1B68202B6DD0354807F0D0
:1058E000E1FAFBF753F90C4B00221A600C4A1268DC
:1058F0009A600C4B064A196811600B4A12681A60CC
:105900000A4A13680133136088E0C04684100020FF
:10591000203B00202C1E0110A03A0020381E011050
:105920000C7E0020983A0020882A002004220020C3
:10593000E0200020F42801103C3B0020903A002099
:10594000701E0110107E0020103B0020283B00201C
:105950006D7C0010B1730010A81E0110B01E011064
:10596000B81E0110C01E0110F81E0110C97B0010E6
:10597000D9720010B97B0010C1720010D97B0010E1
:10598000F1720010301F0110681F0110A01F0110DC
:10599000A97B0010A9720010997B00109172001071
:1059A000D81F01101C220020C43A0020E01F011063
:1059B0000C200110182001100FA910A8FBF7B6F950
:1059C0000F99109802F0D8F8FBF7B6F991E73A4B27
:1059D0001A68C8239B009A4204D0384A13680133DE
:1059E00013601BE0364B1A68364B1A60F5E7364BEE
:1059F00001221A60314A1368013313600EE0334B01
:105A00001A68334B187800234146FBF7AFFB0200BE
:105A10004146304807F076FAFBF7E8FA2E4B0022B1
:105A20001A60FCF774FD2C4B1B689846274B1A68CC
:105A300000234146FBF79AFB02004146254807F048
:105A400061FAFBF7D3FAFCF762FD244B1B68002BCD
:105A500001D1FCF76AFD224B1B68022B01D1FCF738
:105A600064FD02211F4800F023FCFCF75EFD1E4A86
:105A70001268002A03D11B0601D4FCF766FD1B4BFC
:105A80001B68002B06DB13B03CBC90469946A2462F
:105A9000AB46F0BD1B060BD4154807F003FAFBF725
:105AA000A5FA144807F0FEF9134807F0FBF9EAE7F6
:105AB000124807F0F7F9EFE78410002004220020D5
:105AC000882A0020983A0020E4200020203B002073
:105AD000C43A0020E01F01101C220020903A002050
